{
    "ChainAtoChainB_Frontier" : {
        "_info" : {
            "comment" : "",
            "filledwith" : "cpp-1.3.0+commit.c72679f8.Windows.msvc",
            "lllcversion" : "Error getting LLLC Version",
            "source" : "src\\DposBlockTestsFiller\\bcMultiChainTest\\ChainAtoChainBFiller.json",
            "sourceHash" : "05993cf0e75ca51240dde9e517c2b05dc2813805b9cac9079e1eb47a052924b8"
        },
        "blocks" : [
            {
                "blockHeader" : {
                    "bloom" : "0x00000000000000000000000000000000000000000000000000000000000000000000000000000000000000000000000000000000000000000000000000000000000000000000000000000000000000000000000000000000000000000000000000000000000000000000000000000000000000000000000000000000000000000000000000000000000000000000000000000000000000000000000000000000000000000000000000000000000000000000000000000000000000000000000000000000000000000000000000000000000000000000000000000000000000000000000000000000000000000000000000000000000000000000000000000000",
                    "coinbase" : "0x2ecffd9dc5561bbdf23929a250bb99c758d64dbb",
                    "difficulty" : "0x020000",
                    "extraData" : "",
                    "gasLimit" : "0x0cd14000",
                    "gasUsed" : "0x5208",
                    "genesisTime" : "0x00",
                    "hardforkVersion" : "0x00",
                    "hash" : "0xdbae2e106a0fde3f9cb2aff2de617fe7d7db69834db8aee0218786944720ebf5",
                    "number" : "0x01",
                    "parentHash" : "0x3aa1f1dbc6b682f11462ac918ca6e29304cc45f19e7803e998aa15388b72a17a",
                    "r" : "0x4a27eb1cc0fa8a5f5fa5c18a2443fed68985324fa1b3272a90cc1ed242dc2554",
                    "receiptTrie" : "0x056b23fbba480696b65fe5a59b8f2148a1299103c4f57df839233af2cf4ca2d2",
                    "runningVersion" : "0x00",
                    "s" : "0x58049e5ea34a4ab8ba9a02012d96eec69740ddfebacdc2d96403662c7210aadc",
                    "stateRoot" : "0x04407e264b6d3197b5bc9af2094cb32e25ed921487dff25eae239ec30fb2e1b8",
                    "timestamp" : "0x5a376727",
                    "transactionsTrie" : "0x5c9151c2413d1cd25c51ffb4ac38948acc1359bf08c6b49f283660e9bcf0f516",
                    "uncleHash" : "0x1dcc4de8dec75d7aab85b567b6ccd41ad312451b948a7413f0a142fd40d49347",
                    "v" : "0x1c"
                },
                "blocknumber" : "1",
                "chainname" : "A",
                "rlp" : "0xf9027ef90216a03aa1f1dbc6b682f11462ac918ca6e29304cc45f19e7803e998aa15388b72a17aa01dcc4de8dec75d7aab85b567b6ccd41ad312451b948a7413f0a142fd40d49347942ecffd9dc5561bbdf23929a250bb99c758d64dbba004407e264b6d3197b5bc9af2094cb32e25ed921487dff25eae239ec30fb2e1b8a05c9151c2413d1cd25c51ffb4ac38948acc1359bf08c6b49f283660e9bcf0f516a0056b23fbba480696b65fe5a59b8f2148a1299103c4f57df839233af2cf4ca2d2b90100000000000000000000000000000000000000000000000000000000000000000000000000000000000000000000000000000000000000000000000000000000000000000000000000000000000000000000000000000000000000000000000000000000000000000000000000000000000000000000000000000000000000000000000000000000000000000000000000000000000000000000000000000000000000000000000000000000000000000000000000000000000000000000000000000000000000000000000000000000000000000000000000000000000000000000000000000000000000000000000000000000000000000000000000000000008302000001840cd14000825208845a376727808080801ca04a27eb1cc0fa8a5f5fa5c18a2443fed68985324fa1b3272a90cc1ed242dc2554a058049e5ea34a4ab8ba9a02012d96eec69740ddfebacdc2d96403662c7210aadcf862f86080018304cb2f94095e7baea6a6c7c4c2dfeb977efac326af552d870a801ba077c7cd36820c71821c1aed59de46e70e701c4a8dd89c9ba508ab722210f60da8a03f29825d40c7c3f7bff3ca69267e0f3fb74b2d18b8c2c4e3c135b5d3b06e288dc0",
                "transactions" : [
                    {
                        "data" : "",
                        "gasLimit" : "0x04cb2f",
                        "gasPrice" : "0x01",
                        "nonce" : "0x00",
                        "r" : "0x77c7cd36820c71821c1aed59de46e70e701c4a8dd89c9ba508ab722210f60da8",
                        "s" : "0x3f29825d40c7c3f7bff3ca69267e0f3fb74b2d18b8c2c4e3c135b5d3b06e288d",
                        "to" : "0x095e7baea6a6c7c4c2dfeb977efac326af552d87",
                        "v" : "0x1b",
                        "value" : "0x0a"
                    }
                ],
                "uncleHeaders" : [
                ]
            },
            {
                "blockHeader" : {
                    "bloom" : "0x00000000000000000000000000000000000000000000000000000000000000000000000000000000000000000000000000000000000000000000000000000000000000000000000000000000000000000000000000000000000000000000000000000000000000000000000000000000000000000000000000000000000000000000000000000000000000000000000000000000000000000000000000000000000000000000000000000000000000000000000000000000000000000000000000000000000000000000000000000000000000000000000000000000000000000000000000000000000000000000000000000000000000000000000000000000",
                    "coinbase" : "0x5c30b1688bf9b515f268debf6e286c36dd1e1af3",
                    "difficulty" : "0x020000",
                    "extraData" : "",
                    "gasLimit" : "0x0cd14000",
                    "gasUsed" : "0x5208",
                    "genesisTime" : "0x00",
                    "hardforkVersion" : "0x00",
                    "hash" : "0x0f6e910957951bb28c9130e2cd91dc2e812a2c8bcc3e38be50cc6a147688d6bf",
                    "number" : "0x02",
                    "parentHash" : "0xdbae2e106a0fde3f9cb2aff2de617fe7d7db69834db8aee0218786944720ebf5",
                    "r" : "0xd22c27a49d6c40c7ccdab38e1f2e9f39f75f0f531ad275a4f943f3d85b903642",
                    "receiptTrie" : "0x056b23fbba480696b65fe5a59b8f2148a1299103c4f57df839233af2cf4ca2d2",
                    "runningVersion" : "0x00",
                    "s" : "0x610c26d1bb6c19c50feff01021a5d93fbfdd260e160831f7f4116728d4f29b17",
                    "stateRoot" : "0x10c056a022dfbea93a5bbd958a698bf191a1db72d0222f4c25c8d7bae40effdf",
                    "timestamp" : "0x5a376728",
                    "transactionsTrie" : "0xc673e076264c4669a5c2e479f1757b78e42511efe33b5fd2c0a23b929c7f87f5",
                    "uncleHash" : "0x1dcc4de8dec75d7aab85b567b6ccd41ad312451b948a7413f0a142fd40d49347",
                    "v" : "0x1c"
                },
                "blocknumber" : "2",
                "chainname" : "A",
                "rlp" : "0xf9027df90216a0dbae2e106a0fde3f9cb2aff2de617fe7d7db69834db8aee0218786944720ebf5a01dcc4de8dec75d7aab85b567b6ccd41ad312451b948a7413f0a142fd40d49347945c30b1688bf9b515f268debf6e286c36dd1e1af3a010c056a022dfbea93a5bbd958a698bf191a1db72d0222f4c25c8d7bae40effdfa0c673e076264c4669a5c2e479f1757b78e42511efe33b5fd2c0a23b929c7f87f5a0056b23fbba480696b65fe5a59b8f2148a1299103c4f57df839233af2cf4ca2d2b90100000000000000000000000000000000000000000000000000000000000000000000000000000000000000000000000000000000000000000000000000000000000000000000000000000000000000000000000000000000000000000000000000000000000000000000000000000000000000000000000000000000000000000000000000000000000000000000000000000000000000000000000000000000000000000000000000000000000000000000000000000000000000000000000000000000000000000000000000000000000000000000000000000000000000000000000000000000000000000000000000000000000000000000000000000000008302000002840cd14000825208845a376728808080801ca0d22c27a49d6c40c7ccdab38e1f2e9f39f75f0f531ad275a4f943f3d85b903642a0610c26d1bb6c19c50feff01021a5d93fbfdd260e160831f7f4116728d4f29b17f861f85f01018304cb2f94095e7baea6a6c7c4c2dfeb977efac326af552d870a801ba033c86e64d708c97c6b135cadff79dbf45985aa0b53694789e90d15f756765f239f1d0f8caa2a16405148c9d85581be5814960010f3cba938b5501590cea1f7cfc0",
                "transactions" : [
                    {
                        "data" : "",
                        "gasLimit" : "0x04cb2f",
                        "gasPrice" : "0x01",
                        "nonce" : "0x01",
                        "r" : "0x33c86e64d708c97c6b135cadff79dbf45985aa0b53694789e90d15f756765f23",
                        "s" : "0x1d0f8caa2a16405148c9d85581be5814960010f3cba938b5501590cea1f7cf",
                        "to" : "0x095e7baea6a6c7c4c2dfeb977efac326af552d87",
                        "v" : "0x1b",
                        "value" : "0x0a"
                    }
                ],
                "uncleHeaders" : [
                ]
            },
            {
                "blockHeader" : {
                    "bloom" : "0x00000000000000000000000000000000000000000000000000000000000000000000000000000000000000000000000000000000000000000000000000000000000000000000000000000000000000000000000000000000000000000000000000000000000000000000000000000000000000000000000000000000000000000000000000000000000000000000000000000000000000000000000000000000000000000000000000000000000000000000000000000000000000000000000000000000000000000000000000000000000000000000000000000000000000000000000000000000000000000000000000000000000000000000000000000000",
                    "coinbase" : "0x2ecffd9dc5561bbdf23929a250bb99c758d64dbb",
                    "difficulty" : "0x020000",
                    "extraData" : "",
                    "gasLimit" : "0x0cd14000",
                    "gasUsed" : "0x5208",
                    "genesisTime" : "0x00",
                    "hardforkVersion" : "0x00",
                    "hash" : "0x869dc8ddcd3554ba62d60e314c697635301dfdfca04f41a0ab6578133d8c2e61",
                    "number" : "0x01",
                    "parentHash" : "0x3aa1f1dbc6b682f11462ac918ca6e29304cc45f19e7803e998aa15388b72a17a",
                    "r" : "0xb8e10f548b2a0d16cda3bd560f92178df8d06e6d6bc6c537d8a49868ef9352bc",
                    "receiptTrie" : "0x056b23fbba480696b65fe5a59b8f2148a1299103c4f57df839233af2cf4ca2d2",
                    "runningVersion" : "0x00",
                    "s" : "0x073c6bab74a01f276c3d672e3392806a4989fc64328889c3a841e308f57f4713",
                    "stateRoot" : "0x99f197fbff6995c8e0ff22c1526f487ea407c179b9b805fb3519e47d7fcb453c",
                    "timestamp" : "0x5a376727",
                    "transactionsTrie" : "0x89176230d5c4ac60168e999c7a9fbea712992e712c253d635601a9d625c640fa",
                    "uncleHash" : "0x1dcc4de8dec75d7aab85b567b6ccd41ad312451b948a7413f0a142fd40d49347",
                    "v" : "0x1c"
                },
                "blocknumber" : "1",
                "chainname" : "B",
                "rlp" : "0xf9027ef90216a03aa1f1dbc6b682f11462ac918ca6e29304cc45f19e7803e998aa15388b72a17aa01dcc4de8dec75d7aab85b567b6ccd41ad312451b948a7413f0a142fd40d49347942ecffd9dc5561bbdf23929a250bb99c758d64dbba099f197fbff6995c8e0ff22c1526f487ea407c179b9b805fb3519e47d7fcb453ca089176230d5c4ac60168e999c7a9fbea712992e712c253d635601a9d625c640faa0056b23fbba480696b65fe5a59b8f2148a1299103c4f57df839233af2cf4ca2d2b90100000000000000000000000000000000000000000000000000000000000000000000000000000000000000000000000000000000000000000000000000000000000000000000000000000000000000000000000000000000000000000000000000000000000000000000000000000000000000000000000000000000000000000000000000000000000000000000000000000000000000000000000000000000000000000000000000000000000000000000000000000000000000000000000000000000000000000000000000000000000000000000000000000000000000000000000000000000000000000000000000000000000000000000000000000000008302000001840cd14000825208845a376727808080801ca0b8e10f548b2a0d16cda3bd560f92178df8d06e6d6bc6c537d8a49868ef9352bca0073c6bab74a01f276c3d672e3392806a4989fc64328889c3a841e308f57f4713f862f86080018304cb2f94095e7baea6a6c7c4c2dfeb977efac326af552d8764801ca066995adf6b8ce265233fe0ef11b24f7571908674be85c347eed4359396cfa4b1a0458062325e034ea6722559f0153094069424c0d508b7b104f2635a52bfaaa532c0",
                "transactions" : [
                    {
                        "data" : "",
                        "gasLimit" : "0x04cb2f",
                        "gasPrice" : "0x01",
                        "nonce" : "0x00",
                        "r" : "0x66995adf6b8ce265233fe0ef11b24f7571908674be85c347eed4359396cfa4b1",
                        "s" : "0x458062325e034ea6722559f0153094069424c0d508b7b104f2635a52bfaaa532",
                        "to" : "0x095e7baea6a6c7c4c2dfeb977efac326af552d87",
                        "v" : "0x1c",
                        "value" : "0x64"
                    }
                ],
                "uncleHeaders" : [
                ]
            },
            {
                "blockHeader" : {
                    "bloom" : "0x00000000000000000000000000000000000000000000000000000000000000000000000000000000000000000000000000000000000000000000000000000000000000000000000000000000000000000000000000000000000000000000000000000000000000000000000000000000000000000000000000000000000000000000000000000000000000000000000000000000000000000000000000000000000000000000000000000000000000000000000000000000000000000000000000000000000000000000000000000000000000000000000000000000000000000000000000000000000000000000000000000000000000000000000000000000",
                    "coinbase" : "0x5c30b1688bf9b515f268debf6e286c36dd1e1af3",
                    "difficulty" : "0x020000",
                    "extraData" : "",
                    "gasLimit" : "0x0cd14000",
                    "gasUsed" : "0x5208",
                    "genesisTime" : "0x00",
                    "hardforkVersion" : "0x00",
                    "hash" : "0xa7918ff11c3ca0655867260968ae921fa68682f94872063ae757ca44157c6cae",
                    "number" : "0x02",
                    "parentHash" : "0x869dc8ddcd3554ba62d60e314c697635301dfdfca04f41a0ab6578133d8c2e61",
                    "r" : "0xcf04992cba9af54a4bc07bc11d4332931badb9fb84f2b06426500d6b315a2510",
                    "receiptTrie" : "0x056b23fbba480696b65fe5a59b8f2148a1299103c4f57df839233af2cf4ca2d2",
                    "runningVersion" : "0x00",
                    "s" : "0x06ac957d6de4eef8c1bb1279a1a4d7882ed668bb55b3166e8a95d86bc3b0bebc",
                    "stateRoot" : "0xa67076a1e86d6ab65b1685d473a4f8e12c9cefd9bcfc3e307b5fa27ca506a917",
                    "timestamp" : "0x5a376728",
                    "transactionsTrie" : "0x1517d551f5e39788f89454305805e9e71f154ea0919d5e052b03d652ef6f657d",
                    "uncleHash" : "0x1dcc4de8dec75d7aab85b567b6ccd41ad312451b948a7413f0a142fd40d49347",
                    "v" : "0x1b"
                },
                "blocknumber" : "2",
                "chainname" : "B",
                "rlp" : "0xf9027df90216a0869dc8ddcd3554ba62d60e314c697635301dfdfca04f41a0ab6578133d8c2e61a01dcc4de8dec75d7aab85b567b6ccd41ad312451b948a7413f0a142fd40d49347945c30b1688bf9b515f268debf6e286c36dd1e1af3a0a67076a1e86d6ab65b1685d473a4f8e12c9cefd9bcfc3e307b5fa27ca506a917a01517d551f5e39788f89454305805e9e71f154ea0919d5e052b03d652ef6f657da0056b23fbba480696b65fe5a59b8f2148a1299103c4f57df839233af2cf4ca2d2b90100000000000000000000000000000000000000000000000000000000000000000000000000000000000000000000000000000000000000000000000000000000000000000000000000000000000000000000000000000000000000000000000000000000000000000000000000000000000000000000000000000000000000000000000000000000000000000000000000000000000000000000000000000000000000000000000000000000000000000000000000000000000000000000000000000000000000000000000000000000000000000000000000000000000000000000000000000000000000000000000000000000000000000000000000000000008302000002840cd14000825208845a376728808080801ba0cf04992cba9af54a4bc07bc11d4332931badb9fb84f2b06426500d6b315a2510a006ac957d6de4eef8c1bb1279a1a4d7882ed668bb55b3166e8a95d86bc3b0bebcf861f85f010182795394095e7baea6a6c7c4c2dfeb977efac326af552d8764801ba06ae7ce87f0c32417d409ba74b51cdf591f7515007c1c7ce9a4255010f46e1467a064b5f4b57fad4d9582bd666e1befd1e8943ba2f3ce7afc107f04aa4530d5a995c0",
                "transactions" : [
                    {
                        "data" : "",
                        "gasLimit" : "0x7953",
                        "gasPrice" : "0x01",
                        "nonce" : "0x01",
                        "r" : "0x6ae7ce87f0c32417d409ba74b51cdf591f7515007c1c7ce9a4255010f46e1467",
                        "s" : "0x64b5f4b57fad4d9582bd666e1befd1e8943ba2f3ce7afc107f04aa4530d5a995",
                        "to" : "0x095e7baea6a6c7c4c2dfeb977efac326af552d87",
                        "v" : "0x1b",
                        "value" : "0x64"
                    }
                ],
                "uncleHeaders" : [
                ]
            },
            {
                "blockHeader" : {
                    "bloom" : "0x00000000000000000000000000000000000000000000000000000000000000000000000000000000000000000000000000000000000000000000000000000000000000000000000000000000000000000000000000000000000000000000000000000000000000000000000000000000000000000000000000000000000000000000000000000000000000000000000000000000000000000000000000000000000000000000000000000000000000000000000000000000000000000000000000000000000000000000000000000000000000000000000000000000000000000000000000000000000000000000000000000000000000000000000000000000",
                    "coinbase" : "0xfc9f39081b56b1612acbbf0bdfb350b53fae11d7",
                    "difficulty" : "0x020000",
                    "extraData" : "",
                    "gasLimit" : "0x0cd14000",
                    "gasUsed" : "0xa520",
                    "genesisTime" : "0x00",
                    "hardforkVersion" : "0x00",
                    "hash" : "0x79912b4da97fba84886f3a282ddea09cfc0ff473f0daeb3e83d7d635749285bc",
                    "number" : "0x03",
                    "parentHash" : "0xa7918ff11c3ca0655867260968ae921fa68682f94872063ae757ca44157c6cae",
                    "r" : "0xa38a0447685eb9f41043041a6c48037259facb6735f4660993b8cc3e04281df9",
                    "receiptTrie" : "0x39da0d15ee87f85a60f7f4e9a13a177a8f81d3734cf3f2f2279b4bf25b12457c",
                    "runningVersion" : "0x00",
                    "s" : "0x4fc872c1c499f542c93bcf1c628a6404854f2e0e087dee9c77fcb3818e9ea27e",
                    "stateRoot" : "0xe3fb58c1c013b5a89d2fa088946a5daba11c4f43bbe9058deb9fd2e52662ffab",
                    "timestamp" : "0x5a37672b",
                    "transactionsTrie" : "0x78477aaf28ad6a7c05765196a0e352baef952d24592631e2d954955cc6f903f0",
                    "uncleHash" : "0x1dcc4de8dec75d7aab85b567b6ccd41ad312451b948a7413f0a142fd40d49347",
                    "v" : "0x1b"
                },
                "blocknumber" : "3",
                "chainname" : "B",
                "rlp" : "0xf902e2f90216a0a7918ff11c3ca0655867260968ae921fa68682f94872063ae757ca44157c6caea01dcc4de8dec75d7aab85b567b6ccd41ad312451b948a7413f0a142fd40d4934794fc9f39081b56b1612acbbf0bdfb350b53fae11d7a0e3fb58c1c013b5a89d2fa088946a5daba11c4f43bbe9058deb9fd2e52662ffaba078477aaf28ad6a7c05765196a0e352baef952d24592631e2d954955cc6f903f0a039da0d15ee87f85a60f7f4e9a13a177a8f81d3734cf3f2f2279b4bf25b12457cb90100000000000000000000000000000000000000000000000000000000000000000000000000000000000000000000000000000000000000000000000000000000000000000000000000000000000000000000000000000000000000000000000000000000000000000000000000000000000000000000000000000000000000000000000000000000000000000000000000000000000000000000000000000000000000000000000000000000000000000000000000000000000000000000000000000000000000000000000000000000000000000000000000000000000000000000000000000000000000000000000000000000000000000000000000000000008302000003840cd1400082a520845a37672b808080801ba0a38a0447685eb9f41043041a6c48037259facb6735f4660993b8cc3e04281df9a04fc872c1c499f542c93bcf1c628a6404854f2e0e087dee9c77fcb3818e9ea27ef8c6f8630201827b1594095e7baea6a6c7c4c2dfeb977efac326af552d876484345345401ba0c912adcf452d35df5a1f79eaf137953512e39a643d44c25419acb9526baf1913a04d4529643671cfa998a7fb0ed28618f822d4141cee5796e43badf52cb46f435cf85f0301827b1594095e7baea6a6c7c4c2dfeb977efac326af552d8714801ca04ae9ddaa1757ec78622ffb35ca33ade06b0e771a2fd2f9036a0fe855030246b5a053b9db67598fc4d139f3c304d6f63b23a6872b654407ed4260738f054da4b6ffc0",
                "transactions" : [
                    {
                        "data" : "0x34534540",
                        "gasLimit" : "0x7b15",
                        "gasPrice" : "0x01",
                        "nonce" : "0x02",
                        "r" : "0xc912adcf452d35df5a1f79eaf137953512e39a643d44c25419acb9526baf1913",
                        "s" : "0x4d4529643671cfa998a7fb0ed28618f822d4141cee5796e43badf52cb46f435c",
                        "to" : "0x095e7baea6a6c7c4c2dfeb977efac326af552d87",
                        "v" : "0x1b",
                        "value" : "0x64"
                    },
                    {
                        "data" : "",
                        "gasLimit" : "0x7b15",
                        "gasPrice" : "0x01",
                        "nonce" : "0x03",
                        "r" : "0x4ae9ddaa1757ec78622ffb35ca33ade06b0e771a2fd2f9036a0fe855030246b5",
                        "s" : "0x53b9db67598fc4d139f3c304d6f63b23a6872b654407ed4260738f054da4b6ff",
                        "to" : "0x095e7baea6a6c7c4c2dfeb977efac326af552d87",
                        "v" : "0x1c",
                        "value" : "0x14"
                    }
                ],
                "uncleHeaders" : [
                ]
            }
        ],
        "genesisBlockHeader" : {
            "bloom" : "0x00000000000000000000000000000000000000000000000000000000000000000000000000000000000000000000000000000000000000000000000000000000000000000000000000000000000000000000000000000000000000000000000000000000000000000000000000000000000000000000000000000000000000000000000000000000000000000000000000000000000000000000000000000000000000000000000000000000000000000000000000000000000000000000000000000000000000000000000000000000000000000000000000000000000000000000000000000000000000000000000000000000000000000000000000000000",
            "coinbase" : "0x0000000000000000000000000000000000000000",
            "difficulty" : "0x0400",
            "extraData" : "",
            "gasLimit" : "0x0cd14000",
            "gasUsed" : "0x00",
            "genesisTime" : "0x00",
            "hardforkVersion" : "0x00",
            "hash" : "0x3aa1f1dbc6b682f11462ac918ca6e29304cc45f19e7803e998aa15388b72a17a",
            "number" : "0x00",
            "parentHash" : "0x0000000000000000000000000000000000000000000000000000000000000000",
            "r" : "0x00",
            "receiptTrie" : "0x56e81f171bcc55a6ff8345e692c0f86e5b48e01b996cadc001622fb5e363b421",
            "runningVersion" : "0x00",
            "s" : "0x00",
            "stateRoot" : "0x0fc8bfa658da28d56b1f67c1b1546c4ca077be9124cc2dc83233efac4ed408e3",
            "timestamp" : "0x00",
            "transactionsTrie" : "0x56e81f171bcc55a6ff8345e692c0f86e5b48e01b996cadc001622fb5e363b421",
            "uncleHash" : "0x1dcc4de8dec75d7aab85b567b6ccd41ad312451b948a7413f0a142fd40d49347",
            "v" : "0x1b"
        },
        "genesisRLP" : "0xf901d4f901cfa00000000000000000000000000000000000000000000000000000000000000000a01dcc4de8dec75d7aab85b567b6ccd41ad312451b948a7413f0a142fd40d49347940000000000000000000000000000000000000000a00fc8bfa658da28d56b1f67c1b1546c4ca077be9124cc2dc83233efac4ed408e3a056e81f171bcc55a6ff8345e692c0f86e5b48e01b996cadc001622fb5e363b421a056e81f171bcc55a6ff8345e692c0f86e5b48e01b996cadc001622fb5e363b421b901000000000000000000000000000000000000000000000000000000000000000000000000000000000000000000000000000000000000000000000000000000000000000000000000000000000000000000000000000000000000000000000000000000000000000000000000000000000000000000000000000000000000000000000000000000000000000000000000000000000000000000000000000000000000000000000000000000000000000000000000000000000000000000000000000000000000000000000000000000000000000000000000000000000000000000000000000000000000000000000000000000000000000000000000000000000082040080840cd140008080808080801b8080c0c0",
        "lastblockhash" : "0x79912b4da97fba84886f3a282ddea09cfc0ff473f0daeb3e83d7d635749285bc",
        "network" : "Frontier",
        "postState" : {
            "0x0000000000000000000000000000000000000020" : {
                "balance" : "0x01",
                "code" : "0x00",
                "nonce" : "0x00",
                "storage" : {
                }
            },
            "0x0000000000000000000000000000000000000021" : {
                "balance" : "0x01",
                "code" : "0x00",
                "nonce" : "0x00",
                "storage" : {
                }
            },
            "0x000000000000000000000000000000000000002b" : {
                "balance" : "0x01",
                "code" : "0x00",
                "nonce" : "0x00",
                "storage" : {
                }
            },
            "0x095e7baea6a6c7c4c2dfeb977efac326af552d87" : {
                "balance" : "0x0140",
                "code" : "",
                "nonce" : "0x00",
                "storage" : {
                }
            },
            "0x2ecffd9dc5561bbdf23929a250bb99c758d64dbb" : {
                "balance" : "0x4563918244f45208",
                "code" : "",
                "nonce" : "0x00",
                "storage" : {
                }
            },
            "0x5c30b1688bf9b515f268debf6e286c36dd1e1af3" : {
                "balance" : "0x4563918244f45208",
                "code" : "",
                "nonce" : "0x00",
                "storage" : {
                }
            },
            "0xa94f5374fce5edbc8e2a8697c15331677e6ebf0b" : {
                "balance" : "0x09184e715590",
                "code" : "",
                "nonce" : "0x04",
                "storage" : {
                }
            },
            "0xfc9f39081b56b1612acbbf0bdfb350b53fae11d7" : {
                "balance" : "0x4563918244f4a520",
                "code" : "",
                "nonce" : "0x00",
                "storage" : {
                }
            }
        },
        "pre" : {
            "0x0000000000000000000000000000000000000020" : {
                "balance" : "0x01",
                "code" : "0x00",
                "nonce" : "0x00",
                "storage" : {
                }
            },
            "0x0000000000000000000000000000000000000021" : {
                "balance" : "0x01",
                "code" : "0x00",
                "nonce" : "0x00",
                "storage" : {
                }
            },
            "0x000000000000000000000000000000000000002b" : {
                "balance" : "0x01",
                "code" : "0x00",
                "nonce" : "0x00",
                "storage" : {
                }
            },
            "0xa94f5374fce5edbc8e2a8697c15331677e6ebf0b" : {
                "balance" : "0x09184e72a000",
                "code" : "",
                "nonce" : "0x00",
                "storage" : {
                }
            }
        }
    }
}