{
    "ChainAtoChainBIrr_Frontier" : {
        "_info" : {
            "comment" : "",
            "filledwith" : "cpp-1.3.0+commit.96fd1c52.Windows.msvc",
            "lllcversion" : "Error getting LLLC Version",
            "source" : "src\\DposBlockTestsFiller\\bcMultiChainTest\\IrrHashDifferentFiller.json",
            "sourceHash" : "f05acd94598279506da30b5de7fb313237c5900cecbfba0b96dbb0d897977b95"
        },
        "blocks" : [
            {
                "blockHeader" : {
                    "bloom" : "0x00000000000000000000000000000000000000000000000000000000000000000000000000000000000000000000000000000000000000000000000000000000000000000000000000000000000000000000000000000000000000000000000000000000000000000000000000000000000000000000000000000000000000000000000000000000000000000000000000000000000000000000000000000000000000000000000000000000000000000000000000000000000000000000000000000000000000000000000000000000000000000000000000000000000000000000000000000000000000000000000000000000000000000000000000000000",
                    "coinbase" : "0x2ecffd9dc5561bbdf23929a250bb99c758d64dbb",
                    "difficulty" : "0x020000",
                    "extraData" : "",
                    "gasLimit" : "0x0cd14000",
                    "gasUsed" : "0x5208",
                    "genesisTime" : "0x00",
                    "hardforkVersion" : "0x00",
                    "hash" : "0xdbae2e106a0fde3f9cb2aff2de617fe7d7db69834db8aee0218786944720ebf5",
                    "number" : "0x01",
                    "parentHash" : "0x3aa1f1dbc6b682f11462ac918ca6e29304cc45f19e7803e998aa15388b72a17a",
                    "r" : "0x4a27eb1cc0fa8a5f5fa5c18a2443fed68985324fa1b3272a90cc1ed242dc2554",
                    "receiptTrie" : "0x056b23fbba480696b65fe5a59b8f2148a1299103c4f57df839233af2cf4ca2d2",
                    "runningVersion" : "0x00",
                    "s" : "0x58049e5ea34a4ab8ba9a02012d96eec69740ddfebacdc2d96403662c7210aadc",
                    "stateRoot" : "0x04407e264b6d3197b5bc9af2094cb32e25ed921487dff25eae239ec30fb2e1b8",
                    "timestamp" : "0x5a376727",
                    "transactionsTrie" : "0x5c9151c2413d1cd25c51ffb4ac38948acc1359bf08c6b49f283660e9bcf0f516",
                    "uncleHash" : "0x1dcc4de8dec75d7aab85b567b6ccd41ad312451b948a7413f0a142fd40d49347",
                    "v" : "0x1c"
                },
                "blocknumber" : "1",
                "rlp" : "0xf9027ef90216a03aa1f1dbc6b682f11462ac918ca6e29304cc45f19e7803e998aa15388b72a17aa01dcc4de8dec75d7aab85b567b6ccd41ad312451b948a7413f0a142fd40d49347942ecffd9dc5561bbdf23929a250bb99c758d64dbba004407e264b6d3197b5bc9af2094cb32e25ed921487dff25eae239ec30fb2e1b8a05c9151c2413d1cd25c51ffb4ac38948acc1359bf08c6b49f283660e9bcf0f516a0056b23fbba480696b65fe5a59b8f2148a1299103c4f57df839233af2cf4ca2d2b90100000000000000000000000000000000000000000000000000000000000000000000000000000000000000000000000000000000000000000000000000000000000000000000000000000000000000000000000000000000000000000000000000000000000000000000000000000000000000000000000000000000000000000000000000000000000000000000000000000000000000000000000000000000000000000000000000000000000000000000000000000000000000000000000000000000000000000000000000000000000000000000000000000000000000000000000000000000000000000000000000000000000000000000000000000000008302000001840cd14000825208845a376727808080801ca04a27eb1cc0fa8a5f5fa5c18a2443fed68985324fa1b3272a90cc1ed242dc2554a058049e5ea34a4ab8ba9a02012d96eec69740ddfebacdc2d96403662c7210aadcf862f86080018304cb2f94095e7baea6a6c7c4c2dfeb977efac326af552d870a801ba077c7cd36820c71821c1aed59de46e70e701c4a8dd89c9ba508ab722210f60da8a03f29825d40c7c3f7bff3ca69267e0f3fb74b2d18b8c2c4e3c135b5d3b06e288dc0",
                "transactions" : [
                    {
                        "data" : "",
                        "gasLimit" : "0x04cb2f",
                        "gasPrice" : "0x01",
                        "nonce" : "0x00",
                        "r" : "0x77c7cd36820c71821c1aed59de46e70e701c4a8dd89c9ba508ab722210f60da8",
                        "s" : "0x3f29825d40c7c3f7bff3ca69267e0f3fb74b2d18b8c2c4e3c135b5d3b06e288d",
                        "to" : "0x095e7baea6a6c7c4c2dfeb977efac326af552d87",
                        "v" : "0x1b",
                        "value" : "0x0a"
                    }
                ],
                "uncleHeaders" : [
                ]
            },
            {
                "blockHeader" : {
                    "bloom" : "0x00000000000000000000000000000000000000000000000000000000000000000000000000000000000000000000000000000000000000000000000000000000000000000000000000000000000000000000000000000000000000000000000000000000000000000000000000000000000000000000000000000000000000000000000000000000000000000000000000000000000000000000000000000000000000000000000000000000000000000000000000000000000000000000000000000000000000000000000000000000000000000000000000000000000000000000000000000000000000000000000000000000000000000000000000000000",
                    "coinbase" : "0x5c30b1688bf9b515f268debf6e286c36dd1e1af3",
                    "difficulty" : "0x020000",
                    "extraData" : "",
                    "gasLimit" : "0x0cd14000",
                    "gasUsed" : "0x5208",
                    "genesisTime" : "0x00",
                    "hardforkVersion" : "0x00",
                    "hash" : "0x0f6e910957951bb28c9130e2cd91dc2e812a2c8bcc3e38be50cc6a147688d6bf",
                    "number" : "0x02",
                    "parentHash" : "0xdbae2e106a0fde3f9cb2aff2de617fe7d7db69834db8aee0218786944720ebf5",
                    "r" : "0xd22c27a49d6c40c7ccdab38e1f2e9f39f75f0f531ad275a4f943f3d85b903642",
                    "receiptTrie" : "0x056b23fbba480696b65fe5a59b8f2148a1299103c4f57df839233af2cf4ca2d2",
                    "runningVersion" : "0x00",
                    "s" : "0x610c26d1bb6c19c50feff01021a5d93fbfdd260e160831f7f4116728d4f29b17",
                    "stateRoot" : "0x10c056a022dfbea93a5bbd958a698bf191a1db72d0222f4c25c8d7bae40effdf",
                    "timestamp" : "0x5a376728",
                    "transactionsTrie" : "0xc673e076264c4669a5c2e479f1757b78e42511efe33b5fd2c0a23b929c7f87f5",
                    "uncleHash" : "0x1dcc4de8dec75d7aab85b567b6ccd41ad312451b948a7413f0a142fd40d49347",
                    "v" : "0x1c"
                },
                "blocknumber" : "2",
                "rlp" : "0xf9027df90216a0dbae2e106a0fde3f9cb2aff2de617fe7d7db69834db8aee0218786944720ebf5a01dcc4de8dec75d7aab85b567b6ccd41ad312451b948a7413f0a142fd40d49347945c30b1688bf9b515f268debf6e286c36dd1e1af3a010c056a022dfbea93a5bbd958a698bf191a1db72d0222f4c25c8d7bae40effdfa0c673e076264c4669a5c2e479f1757b78e42511efe33b5fd2c0a23b929c7f87f5a0056b23fbba480696b65fe5a59b8f2148a1299103c4f57df839233af2cf4ca2d2b90100000000000000000000000000000000000000000000000000000000000000000000000000000000000000000000000000000000000000000000000000000000000000000000000000000000000000000000000000000000000000000000000000000000000000000000000000000000000000000000000000000000000000000000000000000000000000000000000000000000000000000000000000000000000000000000000000000000000000000000000000000000000000000000000000000000000000000000000000000000000000000000000000000000000000000000000000000000000000000000000000000000000000000000000000000000008302000002840cd14000825208845a376728808080801ca0d22c27a49d6c40c7ccdab38e1f2e9f39f75f0f531ad275a4f943f3d85b903642a0610c26d1bb6c19c50feff01021a5d93fbfdd260e160831f7f4116728d4f29b17f861f85f01018304cb2f94095e7baea6a6c7c4c2dfeb977efac326af552d870a801ba033c86e64d708c97c6b135cadff79dbf45985aa0b53694789e90d15f756765f239f1d0f8caa2a16405148c9d85581be5814960010f3cba938b5501590cea1f7cfc0",
                "transactions" : [
                    {
                        "data" : "",
                        "gasLimit" : "0x04cb2f",
                        "gasPrice" : "0x01",
                        "nonce" : "0x01",
                        "r" : "0x33c86e64d708c97c6b135cadff79dbf45985aa0b53694789e90d15f756765f23",
                        "s" : "0x1d0f8caa2a16405148c9d85581be5814960010f3cba938b5501590cea1f7cf",
                        "to" : "0x095e7baea6a6c7c4c2dfeb977efac326af552d87",
                        "v" : "0x1b",
                        "value" : "0x0a"
                    }
                ],
                "uncleHeaders" : [
                ]
            },
            {
                "blockHeader" : {
                    "bloom" : "0x00000000000000000000000000000000000000000000000000000000000000000000000000000000000000000000000000000000000000000000000000000000000000000000000000000000000000000000000000000000000000000000000000000000000000000000000000000000000000000000000000000000000000000000000000000000000000000000000000000000000000000000000000000000000000000000000000000000000000000000000000000000000000000000000000000000000000000000000000000000000000000000000000000000000000000000000000000000000000000000000000000000000000000000000000000000",
                    "coinbase" : "0xfc9f39081b56b1612acbbf0bdfb350b53fae11d7",
                    "difficulty" : "0x020000",
                    "extraData" : "",
                    "gasLimit" : "0x0cd14000",
                    "gasUsed" : "0x5208",
                    "genesisTime" : "0x00",
                    "hardforkVersion" : "0x00",
                    "hash" : "0xd5c25bc9a073f7301d82d409c810bfa2dc21fa79fbd66ab694521bd8fde47f12",
                    "number" : "0x03",
                    "parentHash" : "0x0f6e910957951bb28c9130e2cd91dc2e812a2c8bcc3e38be50cc6a147688d6bf",
                    "r" : "0x39c184b5d6414dd10fb2a561c2eeb949644deae720921d044791b438b5f03fd3",
                    "receiptTrie" : "0x056b23fbba480696b65fe5a59b8f2148a1299103c4f57df839233af2cf4ca2d2",
                    "runningVersion" : "0x00",
                    "s" : "0x11602f243416520f54c2419df54845beca20da8205d7f8e64f958d2abbab185e",
                    "stateRoot" : "0x8f6a21355731b7a655b028cf871c147756b170a8f4795a85211a6428219fe84d",
                    "timestamp" : "0x5a37672b",
                    "transactionsTrie" : "0x1722b8a91bfc4f5614ce36ee77c7cce6620ab4af36d3c54baa66d7dbeb7bce1a",
                    "uncleHash" : "0x1dcc4de8dec75d7aab85b567b6ccd41ad312451b948a7413f0a142fd40d49347",
                    "v" : "0x1b"
                },
                "blocknumber" : "3",
                "rlp" : "0xf9027ef90216a00f6e910957951bb28c9130e2cd91dc2e812a2c8bcc3e38be50cc6a147688d6bfa01dcc4de8dec75d7aab85b567b6ccd41ad312451b948a7413f0a142fd40d4934794fc9f39081b56b1612acbbf0bdfb350b53fae11d7a08f6a21355731b7a655b028cf871c147756b170a8f4795a85211a6428219fe84da01722b8a91bfc4f5614ce36ee77c7cce6620ab4af36d3c54baa66d7dbeb7bce1aa0056b23fbba480696b65fe5a59b8f2148a1299103c4f57df839233af2cf4ca2d2b90100000000000000000000000000000000000000000000000000000000000000000000000000000000000000000000000000000000000000000000000000000000000000000000000000000000000000000000000000000000000000000000000000000000000000000000000000000000000000000000000000000000000000000000000000000000000000000000000000000000000000000000000000000000000000000000000000000000000000000000000000000000000000000000000000000000000000000000000000000000000000000000000000000000000000000000000000000000000000000000000000000000000000000000000000000000008302000003840cd14000825208845a37672b808080801ba039c184b5d6414dd10fb2a561c2eeb949644deae720921d044791b438b5f03fd3a011602f243416520f54c2419df54845beca20da8205d7f8e64f958d2abbab185ef862f86002018304cb2f94095e7baea6a6c7c4c2dfeb977efac326af552d870a801ca015eb1cc916728b9799e55c489857727669afb2986433d5f54cde11faaed9f0eea05d36f6d06c34aae8d0a2a5895c8ba4a17ad46a5fa59f361cb3e7e01a23030e38c0",
                "transactions" : [
                    {
                        "data" : "",
                        "gasLimit" : "0x04cb2f",
                        "gasPrice" : "0x01",
                        "nonce" : "0x02",
                        "r" : "0x15eb1cc916728b9799e55c489857727669afb2986433d5f54cde11faaed9f0ee",
                        "s" : "0x5d36f6d06c34aae8d0a2a5895c8ba4a17ad46a5fa59f361cb3e7e01a23030e38",
                        "to" : "0x095e7baea6a6c7c4c2dfeb977efac326af552d87",
                        "v" : "0x1c",
                        "value" : "0x0a"
                    }
                ],
                "uncleHeaders" : [
                ]
            },
            {
                "blockHeader" : {
                    "bloom" : "0x00000000000000000000000000000000000000000000000000000000000000000000000000000000000000000000000000000000000000000000000000000000000000000000000000000000000000000000000000000000000000000000000000000000000000000000000000000000000000000000000000000000000000000000000000000000000000000000000000000000000000000000000000000000000000000000000000000000000000000000000000000000000000000000000000000000000000000000000000000000000000000000000000000000000000000000000000000000000000000000000000000000000000000000000000000000",
                    "coinbase" : "0xd4ad13effbb688e77930431a24fd296b71d6c1c9",
                    "difficulty" : "0x020000",
                    "extraData" : "",
                    "gasLimit" : "0x0cd14000",
                    "gasUsed" : "0x5208",
                    "genesisTime" : "0x00",
                    "hardforkVersion" : "0x00",
                    "hash" : "0x02e219daba103dc7ecf4e9d156d102af322541950b9079e6435765284a88a3cf",
                    "number" : "0x04",
                    "parentHash" : "0xd5c25bc9a073f7301d82d409c810bfa2dc21fa79fbd66ab694521bd8fde47f12",
                    "r" : "0x570dd7b76f1a67b2b8ec9e94d14c43deabda6240a6f89d6fd9a8488ebfa75f1f",
                    "receiptTrie" : "0x056b23fbba480696b65fe5a59b8f2148a1299103c4f57df839233af2cf4ca2d2",
                    "runningVersion" : "0x00",
                    "s" : "0x7be292632ad3618a5edfa5362dd3a7b45a934dc0b879545cb1987dff8a73d139",
                    "stateRoot" : "0x4578d6671f2f26f2b62a7f7eafb98aa2709db753fcd80a6c6b4da99b0c3a361a",
                    "timestamp" : "0x5a37672e",
                    "transactionsTrie" : "0x9735e49acaddb4d8338ed33df8dd006449b20b85e89e47224ac8ec8f7ea26071",
                    "uncleHash" : "0x1dcc4de8dec75d7aab85b567b6ccd41ad312451b948a7413f0a142fd40d49347",
                    "v" : "0x1c"
                },
                "blocknumber" : "4",
                "rlp" : "0xf9027ef90216a0d5c25bc9a073f7301d82d409c810bfa2dc21fa79fbd66ab694521bd8fde47f12a01dcc4de8dec75d7aab85b567b6ccd41ad312451b948a7413f0a142fd40d4934794d4ad13effbb688e77930431a24fd296b71d6c1c9a04578d6671f2f26f2b62a7f7eafb98aa2709db753fcd80a6c6b4da99b0c3a361aa09735e49acaddb4d8338ed33df8dd006449b20b85e89e47224ac8ec8f7ea26071a0056b23fbba480696b65fe5a59b8f2148a1299103c4f57df839233af2cf4ca2d2b90100000000000000000000000000000000000000000000000000000000000000000000000000000000000000000000000000000000000000000000000000000000000000000000000000000000000000000000000000000000000000000000000000000000000000000000000000000000000000000000000000000000000000000000000000000000000000000000000000000000000000000000000000000000000000000000000000000000000000000000000000000000000000000000000000000000000000000000000000000000000000000000000000000000000000000000000000000000000000000000000000000000000000000000000000000000008302000004840cd14000825208845a37672e808080801ca0570dd7b76f1a67b2b8ec9e94d14c43deabda6240a6f89d6fd9a8488ebfa75f1fa07be292632ad3618a5edfa5362dd3a7b45a934dc0b879545cb1987dff8a73d139f862f86003018304cb2f94095e7baea6a6c7c4c2dfeb977efac326af552d870a801ba0a7b7f2fa93025fc1e6aa18c1aa07c32a456439754e196cb74f2f7d12cf3e840da02078cf840fb25fc3d858b2a85b622f21be0588b5c5d81d433427f6470e06a4a7c0",
                "transactions" : [
                    {
                        "data" : "",
                        "gasLimit" : "0x04cb2f",
                        "gasPrice" : "0x01",
                        "nonce" : "0x03",
                        "r" : "0xa7b7f2fa93025fc1e6aa18c1aa07c32a456439754e196cb74f2f7d12cf3e840d",
                        "s" : "0x2078cf840fb25fc3d858b2a85b622f21be0588b5c5d81d433427f6470e06a4a7",
                        "to" : "0x095e7baea6a6c7c4c2dfeb977efac326af552d87",
                        "v" : "0x1b",
                        "value" : "0x0a"
                    }
                ],
                "uncleHeaders" : [
                ]
            },
            {
                "blockHeader" : {
                    "bloom" : "0x00000000000000000000000000000000000000000000000000000000000000000000000000000000000000000000000000000000000000000000000000000000000000000000000000000000000000000000000000000000000000000000000000000000000000000000000000000000000000000000000000000000000000000000000000000000000000000000000000000000000000000000000000000000000000000000000000000000000000000000000000000000000000000000000000000000000000000000000000000000000000000000000000000000000000000000000000000000000000000000000000000000000000000000000000000000",
                    "coinbase" : "0x53650a167586d1411c3d9a9a29fa9685efcac6ef",
                    "difficulty" : "0x020000",
                    "extraData" : "",
                    "gasLimit" : "0x0cd14000",
                    "gasUsed" : "0x5208",
                    "genesisTime" : "0x00",
                    "hardforkVersion" : "0x00",
                    "hash" : "0xf3a2200c41f548c13966c94fb77868a71909fac0b66ac2d7275bd4ba015cad2c",
                    "number" : "0x05",
                    "parentHash" : "0x02e219daba103dc7ecf4e9d156d102af322541950b9079e6435765284a88a3cf",
                    "r" : "0xb1ed4baf4d3f8edbc2266973d726dc11d7fe862bf41c3c09d0d7ccd618d7f465",
                    "receiptTrie" : "0x056b23fbba480696b65fe5a59b8f2148a1299103c4f57df839233af2cf4ca2d2",
                    "runningVersion" : "0x00",
                    "s" : "0x04dc9241850cfd988f7ebd2959b95c1f7800b0ab801ce74d6094b5c7514cf754",
                    "stateRoot" : "0x03d92f7548120fa5259937f7cbd0f58ff2ab8bf5f5c595c2f9918f071eda6643",
                    "timestamp" : "0x5a376731",
                    "transactionsTrie" : "0x7e457eebaff319b52b0446acbf66b7d4d641643ec78446b22fa087d412a858a1",
                    "uncleHash" : "0x1dcc4de8dec75d7aab85b567b6ccd41ad312451b948a7413f0a142fd40d49347",
                    "v" : "0x1c"
                },
                "blocknumber" : "5",
                "rlp" : "0xf9027ef90216a002e219daba103dc7ecf4e9d156d102af322541950b9079e6435765284a88a3cfa01dcc4de8dec75d7aab85b567b6ccd41ad312451b948a7413f0a142fd40d493479453650a167586d1411c3d9a9a29fa9685efcac6efa003d92f7548120fa5259937f7cbd0f58ff2ab8bf5f5c595c2f9918f071eda6643a07e457eebaff319b52b0446acbf66b7d4d641643ec78446b22fa087d412a858a1a0056b23fbba480696b65fe5a59b8f2148a1299103c4f57df839233af2cf4ca2d2b90100000000000000000000000000000000000000000000000000000000000000000000000000000000000000000000000000000000000000000000000000000000000000000000000000000000000000000000000000000000000000000000000000000000000000000000000000000000000000000000000000000000000000000000000000000000000000000000000000000000000000000000000000000000000000000000000000000000000000000000000000000000000000000000000000000000000000000000000000000000000000000000000000000000000000000000000000000000000000000000000000000000000000000000000000000000008302000005840cd14000825208845a376731808080801ca0b1ed4baf4d3f8edbc2266973d726dc11d7fe862bf41c3c09d0d7ccd618d7f465a004dc9241850cfd988f7ebd2959b95c1f7800b0ab801ce74d6094b5c7514cf754f862f86004018304cb2f94095e7baea6a6c7c4c2dfeb977efac326af552d870a801ba0ce71dc96c33cae8ba60e25cc2a00a83e4a9fc564520cec1449f63da7435fcb29a0796d06a71cf9a4a3a680421d69147413fa1e903f181f9782783ad9ca55d36b13c0",
                "transactions" : [
                    {
                        "data" : "",
                        "gasLimit" : "0x04cb2f",
                        "gasPrice" : "0x01",
                        "nonce" : "0x04",
                        "r" : "0xce71dc96c33cae8ba60e25cc2a00a83e4a9fc564520cec1449f63da7435fcb29",
                        "s" : "0x796d06a71cf9a4a3a680421d69147413fa1e903f181f9782783ad9ca55d36b13",
                        "to" : "0x095e7baea6a6c7c4c2dfeb977efac326af552d87",
                        "v" : "0x1b",
                        "value" : "0x0a"
                    }
                ],
                "uncleHeaders" : [
                ]
            },
            {
                "blockHeader" : {
                    "bloom" : "0x00000000000000000000000000000000000000000000000000000000000000000000000000000000000000000000000000000000000000000000000000000000000000000000000000000000000000000000000000000000000000000000000000000000000000000000000000000000000000000000000000000000000000000000000000000000000000000000000000000000000000000000000000000000000000000000000000000000000000000000000000000000000000000000000000000000000000000000000000000000000000000000000000000000000000000000000000000000000000000000000000000000000000000000000000000000",
                    "coinbase" : "0x0f5d4d1cb57aeab539b5976850fdf983d9bcdbf1",
                    "difficulty" : "0x020000",
                    "extraData" : "",
                    "gasLimit" : "0x0cd14000",
                    "gasUsed" : "0x5208",
                    "genesisTime" : "0x00",
                    "hardforkVersion" : "0x00",
                    "hash" : "0x5becf2d9c1fab133df8f4c933d964419035b361d02fcacde83d7e849266fa430",
                    "number" : "0x06",
                    "parentHash" : "0xf3a2200c41f548c13966c94fb77868a71909fac0b66ac2d7275bd4ba015cad2c",
                    "r" : "0x0e91ecdae94c7e3be664117c123a4b1f996d5b60f27d4b319d93f609ee1b97de",
                    "receiptTrie" : "0x056b23fbba480696b65fe5a59b8f2148a1299103c4f57df839233af2cf4ca2d2",
                    "runningVersion" : "0x00",
                    "s" : "0x5105a724a5f5ff923b64944bcb25427867e33f9cf97148eb22044cdefe237e80",
                    "stateRoot" : "0x237fa7b35380658d87373c3ff6d13430399853b1dba52084de04bc78836afb87",
                    "timestamp" : "0x5a376734",
                    "transactionsTrie" : "0x72e4aac2bdb78c4c3f8e50bf39b1aa8714fdbf32c1d3426750b9c108c52ce8fd",
                    "uncleHash" : "0x1dcc4de8dec75d7aab85b567b6ccd41ad312451b948a7413f0a142fd40d49347",
                    "v" : "0x1b"
                },
                "blocknumber" : "6",
                "rlp" : "0xf9027ef90216a0f3a2200c41f548c13966c94fb77868a71909fac0b66ac2d7275bd4ba015cad2ca01dcc4de8dec75d7aab85b567b6ccd41ad312451b948a7413f0a142fd40d49347940f5d4d1cb57aeab539b5976850fdf983d9bcdbf1a0237fa7b35380658d87373c3ff6d13430399853b1dba52084de04bc78836afb87a072e4aac2bdb78c4c3f8e50bf39b1aa8714fdbf32c1d3426750b9c108c52ce8fda0056b23fbba480696b65fe5a59b8f2148a1299103c4f57df839233af2cf4ca2d2b90100000000000000000000000000000000000000000000000000000000000000000000000000000000000000000000000000000000000000000000000000000000000000000000000000000000000000000000000000000000000000000000000000000000000000000000000000000000000000000000000000000000000000000000000000000000000000000000000000000000000000000000000000000000000000000000000000000000000000000000000000000000000000000000000000000000000000000000000000000000000000000000000000000000000000000000000000000000000000000000000000000000000000000000000000000000008302000006840cd14000825208845a376734808080801ba00e91ecdae94c7e3be664117c123a4b1f996d5b60f27d4b319d93f609ee1b97dea05105a724a5f5ff923b64944bcb25427867e33f9cf97148eb22044cdefe237e80f862f86005018304cb2f94095e7baea6a6c7c4c2dfeb977efac326af552d870a801ba0b6a4064ef7d23f0e149472d6f1257055149840b6c73a4ae25e595b9f9fc78edca004ad52e8157ae742b551851d58fd6c3919cd7e5a0a9c6685d5bc630a657dcde7c0",
                "transactions" : [
                    {
                        "data" : "",
                        "gasLimit" : "0x04cb2f",
                        "gasPrice" : "0x01",
                        "nonce" : "0x05",
                        "r" : "0xb6a4064ef7d23f0e149472d6f1257055149840b6c73a4ae25e595b9f9fc78edc",
                        "s" : "0x04ad52e8157ae742b551851d58fd6c3919cd7e5a0a9c6685d5bc630a657dcde7",
                        "to" : "0x095e7baea6a6c7c4c2dfeb977efac326af552d87",
                        "v" : "0x1b",
                        "value" : "0x0a"
                    }
                ],
                "uncleHeaders" : [
                ]
            },
            {
                "blockHeader" : {
                    "bloom" : "0x00000000000000000000000000000000000000000000000000000000000000000000000000000000000000000000000000000000000000000000000000000000000000000000000000000000000000000000000000000000000000000000000000000000000000000000000000000000000000000000000000000000000000000000000000000000000000000000000000000000000000000000000000000000000000000000000000000000000000000000000000000000000000000000000000000000000000000000000000000000000000000000000000000000000000000000000000000000000000000000000000000000000000000000000000000000",
                    "coinbase" : "0xd401f0f9f95fc9aed246a3ef441e4903848ef554",
                    "difficulty" : "0x020000",
                    "extraData" : "",
                    "gasLimit" : "0x0cd14000",
                    "gasUsed" : "0x5208",
                    "genesisTime" : "0x00",
                    "hardforkVersion" : "0x00",
                    "hash" : "0x31c87da07e86074540652229426daee5c5aecd938ecd70f5bd1498a42ccb5fb8",
                    "number" : "0x07",
                    "parentHash" : "0x5becf2d9c1fab133df8f4c933d964419035b361d02fcacde83d7e849266fa430",
                    "r" : "0x5291cd1e1f9a9bd424ebcfa01fd8b9fa6cb1171d3f8ed017360f4b525f5dae53",
                    "receiptTrie" : "0x056b23fbba480696b65fe5a59b8f2148a1299103c4f57df839233af2cf4ca2d2",
                    "runningVersion" : "0x00",
                    "s" : "0x2244553fae29b81911436be1438cbfc7cd5f10f79194959124480083854c7b09",
                    "stateRoot" : "0x2307449f7e4486dc7f7eb76ce469419310e87e63576ec03cc9fedb04fa8531e2",
                    "timestamp" : "0x5a376737",
                    "transactionsTrie" : "0xb599d73bc0f69c32741df069fac99e6a88ec762035157a4da4e56988ca234691",
                    "uncleHash" : "0x1dcc4de8dec75d7aab85b567b6ccd41ad312451b948a7413f0a142fd40d49347",
                    "v" : "0x1c"
                },
                "blocknumber" : "7",
                "rlp" : "0xf9027ef90216a05becf2d9c1fab133df8f4c933d964419035b361d02fcacde83d7e849266fa430a01dcc4de8dec75d7aab85b567b6ccd41ad312451b948a7413f0a142fd40d4934794d401f0f9f95fc9aed246a3ef441e4903848ef554a02307449f7e4486dc7f7eb76ce469419310e87e63576ec03cc9fedb04fa8531e2a0b599d73bc0f69c32741df069fac99e6a88ec762035157a4da4e56988ca234691a0056b23fbba480696b65fe5a59b8f2148a1299103c4f57df839233af2cf4ca2d2b90100000000000000000000000000000000000000000000000000000000000000000000000000000000000000000000000000000000000000000000000000000000000000000000000000000000000000000000000000000000000000000000000000000000000000000000000000000000000000000000000000000000000000000000000000000000000000000000000000000000000000000000000000000000000000000000000000000000000000000000000000000000000000000000000000000000000000000000000000000000000000000000000000000000000000000000000000000000000000000000000000000000000000000000000000000000008302000007840cd14000825208845a376737808080801ca05291cd1e1f9a9bd424ebcfa01fd8b9fa6cb1171d3f8ed017360f4b525f5dae53a02244553fae29b81911436be1438cbfc7cd5f10f79194959124480083854c7b09f862f86006018304cb2f94095e7baea6a6c7c4c2dfeb977efac326af552d870a801ba06e5cde32123fa42eeaa27497d538e8fd35c60eda30ead6c296750d3dfcc6d748a01926babbf8c4fef9eb45fe0d532cc30683a16b3415084a9043b27f513057014bc0",
                "transactions" : [
                    {
                        "data" : "",
                        "gasLimit" : "0x04cb2f",
                        "gasPrice" : "0x01",
                        "nonce" : "0x06",
                        "r" : "0x6e5cde32123fa42eeaa27497d538e8fd35c60eda30ead6c296750d3dfcc6d748",
                        "s" : "0x1926babbf8c4fef9eb45fe0d532cc30683a16b3415084a9043b27f513057014b",
                        "to" : "0x095e7baea6a6c7c4c2dfeb977efac326af552d87",
                        "v" : "0x1b",
                        "value" : "0x0a"
                    }
                ],
                "uncleHeaders" : [
                ]
            }
		],
        "genesisRLP" : "0xf901d4f901cfa00000000000000000000000000000000000000000000000000000000000000000a01dcc4de8dec75d7aab85b567b6ccd41ad312451b948a7413f0a142fd40d49347940000000000000000000000000000000000000000a00fc8bfa658da28d56b1f67c1b1546c4ca077be9124cc2dc83233efac4ed408e3a056e81f171bcc55a6ff8345e692c0f86e5b48e01b996cadc001622fb5e363b421a056e81f171bcc55a6ff8345e692c0f86e5b48e01b996cadc001622fb5e363b421b901000000000000000000000000000000000000000000000000000000000000000000000000000000000000000000000000000000000000000000000000000000000000000000000000000000000000000000000000000000000000000000000000000000000000000000000000000000000000000000000000000000000000000000000000000000000000000000000000000000000000000000000000000000000000000000000000000000000000000000000000000000000000000000000000000000000000000000000000000000000000000000000000000000000000000000000000000000000000000000000000000000000000000000000000000000000082040080840cd140008080808080801b8080c0c0",
	}
}